{
  "contractName": "ERC1820Implementer",
  "abi": [
    {
      "inputs": [
        {
          "internalType": "bytes32",
          "name": "interfaceHash",
          "type": "bytes32"
        },
        {
          "internalType": "address",
          "name": "account",
          "type": "address"
        }
      ],
      "name": "canImplementInterfaceForAddress",
      "outputs": [
        {
          "internalType": "bytes32",
          "name": "",
          "type": "bytes32"
        }
      ],
      "stateMutability": "view",
      "type": "function"
    }
  ],
  "bytecode": "0x608060405234801561001057600080fd5b50610111806100206000396000f3fe6080604052348015600f57600080fd5b506004361060285760003560e01c8063249cb3fa14602d575b600080fd5b605660048036036040811015604157600080fd5b50803590602001356001600160a01b03166068565b60408051918252519081900360200190f35b6000828152602081815260408083206001600160a01b038516845290915281205460ff16609557600060d4565b604051602001808073455243313832305f4143434550545f4d4147494360601b8152506014019050604051602081830303815290604052805190602001205b939250505056fea264697066735822122087d53e2f6d8cc589ed19e44b1f99dbdcf9a29c0066619dd8f9aa3d64619d75ae64736f6c634300060c0033",
  "immutableReferences": {},
  "source": "// SPDX-License-Identifier: MIT\n\npragma solidity >=0.6.0 <0.8.0;\n\nimport \"./IERC1820Implementer.sol\";\n\n/**\n * @dev Implementation of the {IERC1820Implementer} interface.\n *\n * Contracts may inherit from this and call {_registerInterfaceForAddress} to\n * declare their willingness to be implementers.\n * {IERC1820Registry-setInterfaceImplementer} should then be called for the\n * registration to be complete.\n */\ncontract ERC1820Implementer is IERC1820Implementer {\n    bytes32 constant private _ERC1820_ACCEPT_MAGIC = keccak256(abi.encodePacked(\"ERC1820_ACCEPT_MAGIC\"));\n\n    mapping(bytes32 => mapping(address => bool)) private _supportedInterfaces;\n\n    /**\n     * See {IERC1820Implementer-canImplementInterfaceForAddress}.\n     */\n    function canImplementInterfaceForAddress(bytes32 interfaceHash, address account) public view virtual override returns (bytes32) {\n        return _supportedInterfaces[interfaceHash][account] ? _ERC1820_ACCEPT_MAGIC : bytes32(0x00);\n    }\n\n    /**\n     * @dev Declares the contract as willing to be an implementer of\n     * `interfaceHash` for `account`.\n     *\n     * See {IERC1820Registry-setInterfaceImplementer} and\n     * {IERC1820Registry-interfaceHash}.\n     */\n    function _registerInterfaceForAddress(bytes32 interfaceHash, address account) internal virtual {\n        _supportedInterfaces[interfaceHash][account] = true;\n    }\n}\n",
  "sourcePath": "/home/ethereum/Desktop/NFT_DIR/contracts/introspection/ERC1820Implementer.sol",
  "compiler": {
    "name": "solc",
    "version": "0.6.12+commit.27d51765.Emscripten.clang"
  },
  "schemaVersion": "3.3.3",
  "updatedAt": "2021-03-23T14:41:06.229Z",
  "devdoc": {
    "details": "Implementation of the {IERC1820Implementer} interface. Contracts may inherit from this and call {_registerInterfaceForAddress} to declare their willingness to be implementers. {IERC1820Registry-setInterfaceImplementer} should then be called for the registration to be complete.",
    "kind": "dev",
    "methods": {},
    "version": 1
  },
  "userdoc": {
    "kind": "user",
    "methods": {
      "canImplementInterfaceForAddress(bytes32,address)": {
        "notice": "See {IERC1820Implementer-canImplementInterfaceForAddress}."
      }
    },
    "version": 1
  }
}