{
  "contractName": "ERC721PresetMinterPauserAutoId",
  "abi": [
    {
      "inputs": [
        {
          "internalType": "string",
          "name": "name",
          "type": "string"
        },
        {
          "internalType": "string",
          "name": "symbol",
          "type": "string"
        },
        {
          "internalType": "string",
          "name": "baseURI",
          "type": "string"
        }
      ],
      "stateMutability": "nonpayable",
      "type": "constructor"
    },
    {
      "anonymous": false,
      "inputs": [
        {
          "indexed": true,
          "internalType": "address",
          "name": "owner",
          "type": "address"
        },
        {
          "indexed": true,
          "internalType": "address",
          "name": "approved",
          "type": "address"
        },
        {
          "indexed": true,
          "internalType": "uint256",
          "name": "tokenId",
          "type": "uint256"
        }
      ],
      "name": "Approval",
      "type": "event"
    },
    {
      "anonymous": false,
      "inputs": [
        {
          "indexed": true,
          "internalType": "address",
          "name": "owner",
          "type": "address"
        },
        {
          "indexed": true,
          "internalType": "address",
          "name": "operator",
          "type": "address"
        },
        {
          "indexed": false,
          "internalType": "bool",
          "name": "approved",
          "type": "bool"
        }
      ],
      "name": "ApprovalForAll",
      "type": "event"
    },
    {
      "anonymous": false,
      "inputs": [
        {
          "indexed": false,
          "internalType": "address",
          "name": "account",
          "type": "address"
        }
      ],
      "name": "Paused",
      "type": "event"
    },
    {
      "anonymous": false,
      "inputs": [
        {
          "indexed": true,
          "internalType": "bytes32",
          "name": "role",
          "type": "bytes32"
        },
        {
          "indexed": true,
          "internalType": "bytes32",
          "name": "previousAdminRole",
          "type": "bytes32"
        },
        {
          "indexed": true,
          "internalType": "bytes32",
          "name": "newAdminRole",
          "type": "bytes32"
        }
      ],
      "name": "RoleAdminChanged",
      "type": "event"
    },
    {
      "anonymous": false,
      "inputs": [
        {
          "indexed": true,
          "internalType": "bytes32",
          "name": "role",
          "type": "bytes32"
        },
        {
          "indexed": true,
          "internalType": "address",
          "name": "account",
          "type": "address"
        },
        {
          "indexed": true,
          "internalType": "address",
          "name": "sender",
          "type": "address"
        }
      ],
      "name": "RoleGranted",
      "type": "event"
    },
    {
      "anonymous": false,
      "inputs": [
        {
          "indexed": true,
          "internalType": "bytes32",
          "name": "role",
          "type": "bytes32"
        },
        {
          "indexed": true,
          "internalType": "address",
          "name": "account",
          "type": "address"
        },
        {
          "indexed": true,
          "internalType": "address",
          "name": "sender",
          "type": "address"
        }
      ],
      "name": "RoleRevoked",
      "type": "event"
    },
    {
      "anonymous": false,
      "inputs": [
        {
          "indexed": true,
          "internalType": "address",
          "name": "from",
          "type": "address"
        },
        {
          "indexed": true,
          "internalType": "address",
          "name": "to",
          "type": "address"
        },
        {
          "indexed": true,
          "internalType": "uint256",
          "name": "tokenId",
          "type": "uint256"
        }
      ],
      "name": "Transfer",
      "type": "event"
    },
    {
      "anonymous": false,
      "inputs": [
        {
          "indexed": false,
          "internalType": "address",
          "name": "account",
          "type": "address"
        }
      ],
      "name": "Unpaused",
      "type": "event"
    },
    {
      "inputs": [],
      "name": "DEFAULT_ADMIN_ROLE",
      "outputs": [
        {
          "internalType": "bytes32",
          "name": "",
          "type": "bytes32"
        }
      ],
      "stateMutability": "view",
      "type": "function",
      "constant": true
    },
    {
      "inputs": [],
      "name": "MINTER_ROLE",
      "outputs": [
        {
          "internalType": "bytes32",
          "name": "",
          "type": "bytes32"
        }
      ],
      "stateMutability": "view",
      "type": "function",
      "constant": true
    },
    {
      "inputs": [],
      "name": "PAUSER_ROLE",
      "outputs": [
        {
          "internalType": "bytes32",
          "name": "",
          "type": "bytes32"
        }
      ],
      "stateMutability": "view",
      "type": "function",
      "constant": true
    },
    {
      "inputs": [
        {
          "internalType": "address",
          "name": "to",
          "type": "address"
        },
        {
          "internalType": "uint256",
          "name": "tokenId",
          "type": "uint256"
        }
      ],
      "name": "approve",
      "outputs": [],
      "stateMutability": "nonpayable",
      "type": "function"
    },
    {
      "inputs": [
        {
          "internalType": "address",
          "name": "owner",
          "type": "address"
        }
      ],
      "name": "balanceOf",
      "outputs": [
        {
          "internalType": "uint256",
          "name": "",
          "type": "uint256"
        }
      ],
      "stateMutability": "view",
      "type": "function",
      "constant": true
    },
    {
      "inputs": [],
      "name": "baseURI",
      "outputs": [
        {
          "internalType": "string",
          "name": "",
          "type": "string"
        }
      ],
      "stateMutability": "view",
      "type": "function",
      "constant": true
    },
    {
      "inputs": [
        {
          "internalType": "uint256",
          "name": "tokenId",
          "type": "uint256"
        }
      ],
      "name": "burn",
      "outputs": [],
      "stateMutability": "nonpayable",
      "type": "function"
    },
    {
      "inputs": [
        {
          "internalType": "uint256",
          "name": "tokenId",
          "type": "uint256"
        }
      ],
      "name": "getApproved",
      "outputs": [
        {
          "internalType": "address",
          "name": "",
          "type": "address"
        }
      ],
      "stateMutability": "view",
      "type": "function",
      "constant": true
    },
    {
      "inputs": [
        {
          "internalType": "bytes32",
          "name": "role",
          "type": "bytes32"
        }
      ],
      "name": "getRoleAdmin",
      "outputs": [
        {
          "internalType": "bytes32",
          "name": "",
          "type": "bytes32"
        }
      ],
      "stateMutability": "view",
      "type": "function",
      "constant": true
    },
    {
      "inputs": [
        {
          "internalType": "bytes32",
          "name": "role",
          "type": "bytes32"
        },
        {
          "internalType": "uint256",
          "name": "index",
          "type": "uint256"
        }
      ],
      "name": "getRoleMember",
      "outputs": [
        {
          "internalType": "address",
          "name": "",
          "type": "address"
        }
      ],
      "stateMutability": "view",
      "type": "function",
      "constant": true
    },
    {
      "inputs": [
        {
          "internalType": "bytes32",
          "name": "role",
          "type": "bytes32"
        }
      ],
      "name": "getRoleMemberCount",
      "outputs": [
        {
          "internalType": "uint256",
          "name": "",
          "type": "uint256"
        }
      ],
      "stateMutability": "view",
      "type": "function",
      "constant": true
    },
    {
      "inputs": [
        {
          "internalType": "bytes32",
          "name": "role",
          "type": "bytes32"
        },
        {
          "internalType": "address",
          "name": "account",
          "type": "address"
        }
      ],
      "name": "grantRole",
      "outputs": [],
      "stateMutability": "nonpayable",
      "type": "function"
    },
    {
      "inputs": [
        {
          "internalType": "bytes32",
          "name": "role",
          "type": "bytes32"
        },
        {
          "internalType": "address",
          "name": "account",
          "type": "address"
        }
      ],
      "name": "hasRole",
      "outputs": [
        {
          "internalType": "bool",
          "name": "",
          "type": "bool"
        }
      ],
      "stateMutability": "view",
      "type": "function",
      "constant": true
    },
    {
      "inputs": [
        {
          "internalType": "address",
          "name": "owner",
          "type": "address"
        },
        {
          "internalType": "address",
          "name": "operator",
          "type": "address"
        }
      ],
      "name": "isApprovedForAll",
      "outputs": [
        {
          "internalType": "bool",
          "name": "",
          "type": "bool"
        }
      ],
      "stateMutability": "view",
      "type": "function",
      "constant": true
    },
    {
      "inputs": [],
      "name": "name",
      "outputs": [
        {
          "internalType": "string",
          "name": "",
          "type": "string"
        }
      ],
      "stateMutability": "view",
      "type": "function",
      "constant": true
    },
    {
      "inputs": [
        {
          "internalType": "uint256",
          "name": "tokenId",
          "type": "uint256"
        }
      ],
      "name": "ownerOf",
      "outputs": [
        {
          "internalType": "address",
          "name": "",
          "type": "address"
        }
      ],
      "stateMutability": "view",
      "type": "function",
      "constant": true
    },
    {
      "inputs": [],
      "name": "paused",
      "outputs": [
        {
          "internalType": "bool",
          "name": "",
          "type": "bool"
        }
      ],
      "stateMutability": "view",
      "type": "function",
      "constant": true
    },
    {
      "inputs": [
        {
          "internalType": "bytes32",
          "name": "role",
          "type": "bytes32"
        },
        {
          "internalType": "address",
          "name": "account",
          "type": "address"
        }
      ],
      "name": "renounceRole",
      "outputs": [],
      "stateMutability": "nonpayable",
      "type": "function"
    },
    {
      "inputs": [
        {
          "internalType": "bytes32",
          "name": "role",
          "type": "bytes32"
        },
        {
          "internalType": "address",
          "name": "account",
          "type": "address"
        }
      ],
      "name": "revokeRole",
      "outputs": [],
      "stateMutability": "nonpayable",
      "type": "function"
    },
    {
      "inputs": [
        {
          "internalType": "address",
          "name": "from",
          "type": "address"
        },
        {
          "internalType": "address",
          "name": "to",
          "type": "address"
        },
        {
          "internalType": "uint256",
          "name": "tokenId",
          "type": "uint256"
        }
      ],
      "name": "safeTransferFrom",
      "outputs": [],
      "stateMutability": "nonpayable",
      "type": "function"
    },
    {
      "inputs": [
        {
          "internalType": "address",
          "name": "from",
          "type": "address"
        },
        {
          "internalType": "address",
          "name": "to",
          "type": "address"
        },
        {
          "internalType": "uint256",
          "name": "tokenId",
          "type": "uint256"
        },
        {
          "internalType": "bytes",
          "name": "_data",
          "type": "bytes"
        }
      ],
      "name": "safeTransferFrom",
      "outputs": [],
      "stateMutability": "nonpayable",
      "type": "function"
    },
    {
      "inputs": [
        {
          "internalType": "address",
          "name": "operator",
          "type": "address"
        },
        {
          "internalType": "bool",
          "name": "approved",
          "type": "bool"
        }
      ],
      "name": "setApprovalForAll",
      "outputs": [],
      "stateMutability": "nonpayable",
      "type": "function"
    },
    {
      "inputs": [
        {
          "internalType": "bytes4",
          "name": "interfaceId",
          "type": "bytes4"
        }
      ],
      "name": "supportsInterface",
      "outputs": [
        {
          "internalType": "bool",
          "name": "",
          "type": "bool"
        }
      ],
      "stateMutability": "view",
      "type": "function",
      "constant": true
    },
    {
      "inputs": [],
      "name": "symbol",
      "outputs": [
        {
          "internalType": "string",
          "name": "",
          "type": "string"
        }
      ],
      "stateMutability": "view",
      "type": "function",
      "constant": true
    },
    {
      "inputs": [
        {
          "internalType": "uint256",
          "name": "index",
          "type": "uint256"
        }
      ],
      "name": "tokenByIndex",
      "outputs": [
        {
          "internalType": "uint256",
          "name": "",
          "type": "uint256"
        }
      ],
      "stateMutability": "view",
      "type": "function",
      "constant": true
    },
    {
      "inputs": [
        {
          "internalType": "address",
          "name": "owner",
          "type": "address"
        },
        {
          "internalType": "uint256",
          "name": "index",
          "type": "uint256"
        }
      ],
      "name": "tokenOfOwnerByIndex",
      "outputs": [
        {
          "internalType": "uint256",
          "name": "",
          "type": "uint256"
        }
      ],
      "stateMutability": "view",
      "type": "function",
      "constant": true
    },
    {
      "inputs": [
        {
          "internalType": "uint256",
          "name": "tokenId",
          "type": "uint256"
        }
      ],
      "name": "tokenURI",
      "outputs": [
        {
          "internalType": "string",
          "name": "",
          "type": "string"
        }
      ],
      "stateMutability": "view",
      "type": "function",
      "constant": true
    },
    {
      "inputs": [],
      "name": "totalSupply",
      "outputs": [
        {
          "internalType": "uint256",
          "name": "",
          "type": "uint256"
        }
      ],
      "stateMutability": "view",
      "type": "function",
      "constant": true
    },
    {
      "inputs": [
        {
          "internalType": "address",
          "name": "from",
          "type": "address"
        },
        {
          "internalType": "address",
          "name": "to",
          "type": "address"
        },
        {
          "internalType": "uint256",
          "name": "tokenId",
          "type": "uint256"
        }
      ],
      "name": "transferFrom",
      "outputs": [],
      "stateMutability": "nonpayable",
      "type": "function"
    },
    {
      "inputs": [
        {
          "internalType": "address",
          "name": "to",
          "type": "address"
        }
      ],
      "name": "mint",
      "outputs": [],
      "stateMutability": "nonpayable",
      "type": "function"
    },
    {
      "inputs": [],
      "name": "pause",
      "outputs": [],
      "stateMutability": "nonpayable",
      "type": "function"
    },
    {
      "inputs": [],
      "name": "unpause",
      "outputs": [],
      "stateMutability": "nonpayable",
      "type": "function"
    }
  ],
  "bytecode": "0x60806040523480156200001157600080fd5b5060405162002cae38038062002cae833981810160405260608110156200003757600080fd5b81019080805160405193929190846401000000008211156200005857600080fd5b9083019060208201858111156200006e57600080fd5b82516401000000008111828201881017156200008957600080fd5b82525081516020918201929091019080838360005b83811015620000b85781810151838201526020016200009e565b50505050905090810190601f168015620000e65780820380516001836020036101000a031916815260200191505b50604052602001805160405193929190846401000000008211156200010a57600080fd5b9083019060208201858111156200012057600080fd5b82516401000000008111828201881017156200013b57600080fd5b82525081516020918201929091019080838360005b838110156200016a57818101518382015260200162000150565b50505050905090810190601f168015620001985780820380516001836020036101000a031916815260200191505b5060405260200180516040519392919084640100000000821115620001bc57600080fd5b908301906020820185811115620001d257600080fd5b8251640100000000811182820188101715620001ed57600080fd5b82525081516020918201929091019080838360005b838110156200021c57818101518382015260200162000202565b50505050905090810190601f1680156200024a5780820380516001836020036101000a031916815260200191505b5060405250849150839050620002676301ffc9a760e01b6200035d565b81516200027c9060079060208501906200050e565b508051620002929060089060208401906200050e565b50620002a56380ac58cd60e01b6200035d565b620002b7635b5e139f60e01b6200035d565b620002c963780e9d6360e01b6200035d565b5050600b805460ff19169055620002eb6000620002e5620003e5565b620003e9565b6200031a7f9f2df0fed2c77648de5860a4cc508cd0818c85b8b8a1ab4ceeef8d981c8956a6620002e5620003e5565b620003497f65d7a28e3265b37a6474929f336521b332c1681b933f6cb9f3376673440d862a620002e5620003e5565b6200035481620003f9565b505050620005aa565b6001600160e01b03198082161415620003bd576040805162461bcd60e51b815260206004820152601c60248201527f4552433136353a20696e76616c696420696e7465726661636520696400000000604482015290519081900360640190fd5b6001600160e01b0319166000908152600160208190526040909120805460ff19169091179055565b3390565b620003f582826200040e565b5050565b8051620003f590600a9060208401906200050e565b60008281526020818152604090912062000433918390620012a362000487821b17901c565b15620003f55762000443620003e5565b6001600160a01b0316816001600160a01b0316837f2f8788117e7eff1d82e926ec794901d17c78024a50270940304540a733656f0d60405160405180910390a45050565b60006200049e836001600160a01b038416620004a7565b90505b92915050565b6000620004b58383620004f6565b620004ed57508154600181810184556000848152602080822090930184905584548482528286019093526040902091909155620004a1565b506000620004a1565b60009081526001919091016020526040902054151590565b828054600181600116156101000203166002900490600052602060002090601f016020900481019282601f106200055157805160ff191683800117855562000581565b8280016001018555821562000581579182015b828111156200058157825182559160200191906001019062000564565b506200058f92915062000593565b5090565b5b808211156200058f576000815560010162000594565b6126f480620005ba6000396000f3fe608060405234801561001057600080fd5b50600436106101f05760003560e01c80636a6278421161010f578063a22cb465116100a2578063d539139311610071578063d53913931461068b578063d547741f14610693578063e63ab1e9146106bf578063e985e9c5146106c7576101f0565b8063a22cb4651461055d578063b88d4fde1461058b578063c87b56dd14610651578063ca15c8731461066e576101f0565b80639010d07c116100de5780639010d07c146104fe57806391d148541461052157806395d89b411461054d578063a217fddf14610555576101f0565b80636a627842146104a25780636c0360eb146104c857806370a08231146104d05780638456cb59146104f6576101f0565b80632f745c591161018757806342966c681161015657806342966c68146104435780634f6ccce7146104605780635c975abb1461047d5780636352211e14610485576101f0565b80632f745c59146103ad57806336568abe146103d95780633f4ba83a1461040557806342842e0e1461040d576101f0565b806318160ddd116101c357806318160ddd1461031457806323b872dd1461032e578063248a9ca3146103645780632f2ff15d14610381576101f0565b806301ffc9a7146101f557806306fdde0314610230578063081812fc146102ad578063095ea7b3146102e6575b600080fd5b61021c6004803603602081101561020b57600080fd5b50356001600160e01b0319166106f5565b604080519115158252519081900360200190f35b610238610718565b6040805160208082528351818301528351919283929083019185019080838360005b8381101561027257818101518382015260200161025a565b50505050905090810190601f16801561029f5780820380516001836020036101000a031916815260200191505b509250505060405180910390f35b6102ca600480360360208110156102c357600080fd5b50356107ae565b604080516001600160a01b039092168252519081900360200190f35b610312600480360360408110156102fc57600080fd5b506001600160a01b038135169060200135610810565b005b61031c6108eb565b60408051918252519081900360200190f35b6103126004803603606081101561034457600080fd5b506001600160a01b038135811691602081013590911690604001356108fc565b61031c6004803603602081101561037a57600080fd5b5035610953565b6103126004803603604081101561039757600080fd5b50803590602001356001600160a01b0316610968565b61031c600480360360408110156103c357600080fd5b506001600160a01b0381351690602001356109d4565b610312600480360360408110156103ef57600080fd5b50803590602001356001600160a01b03166109ff565b610312610a60565b6103126004803603606081101561042357600080fd5b506001600160a01b03813581169160208101359091169060400135610ad1565b6103126004803603602081101561045957600080fd5b5035610aec565b61031c6004803603602081101561047657600080fd5b5035610b3e565b61021c610b54565b6102ca6004803603602081101561049b57600080fd5b5035610b5d565b610312600480360360208110156104b857600080fd5b50356001600160a01b0316610b85565b610238610c09565b61031c600480360360208110156104e657600080fd5b50356001600160a01b0316610c6a565b610312610cd2565b6102ca6004803603604081101561051457600080fd5b5080359060200135610d41565b61021c6004803603604081101561053757600080fd5b50803590602001356001600160a01b0316610d59565b610238610d71565b61031c610dd2565b6103126004803603604081101561057357600080fd5b506001600160a01b0381351690602001351515610dd7565b610312600480360360808110156105a157600080fd5b6001600160a01b038235811692602081013590911691604082013591908101906080810160608201356401000000008111156105dc57600080fd5b8201836020820111156105ee57600080fd5b8035906020019184600183028401116401000000008311171561061057600080fd5b91908080601f016020809104026020016040519081016040528093929190818152602001838380828437600092019190915250929550610edc945050505050565b6102386004803603602081101561066757600080fd5b5035610f3a565b61031c6004803603602081101561068457600080fd5b50356111bd565b61031c6111d4565b610312600480360360408110156106a957600080fd5b50803590602001356001600160a01b03166111f8565b61031c611251565b61021c600480360360408110156106dd57600080fd5b506001600160a01b0381358116916020013516611275565b6001600160e01b0319811660009081526001602052604090205460ff165b919050565b60078054604080516020601f60026000196101006001881615020190951694909404938401819004810282018101909252828152606093909290918301828280156107a45780601f10610779576101008083540402835291602001916107a4565b820191906000526020600020905b81548152906001019060200180831161078757829003601f168201915b5050505050905090565b60006107b9826112b8565b6107f45760405162461bcd60e51b815260040180806020018281038252602c81526020018061250d602c913960400191505060405180910390fd5b506000908152600560205260409020546001600160a01b031690565b600061081b82610b5d565b9050806001600160a01b0316836001600160a01b0316141561086e5760405162461bcd60e51b81526004018080602001828103825260218152602001806125916021913960400191505060405180910390fd5b806001600160a01b03166108806112c5565b6001600160a01b031614806108a157506108a18161089c6112c5565b611275565b6108dc5760405162461bcd60e51b81526004018080602001828103825260388152602001806124606038913960400191505060405180910390fd5b6108e683836112c9565b505050565b60006108f76003611337565b905090565b61090d6109076112c5565b82611342565b6109485760405162461bcd60e51b81526004018080602001828103825260318152602001806125b26031913960400191505060405180910390fd5b6108e68383836113e6565b60009081526020819052604090206002015490565b60008281526020819052604090206002015461098b906109866112c5565b610d59565b6109c65760405162461bcd60e51b815260040180806020018281038252602f815260200180612341602f913960400191505060405180910390fd5b6109d08282611532565b5050565b6001600160a01b03821660009081526002602052604081206109f6908361159b565b90505b92915050565b610a076112c5565b6001600160a01b0316816001600160a01b031614610a565760405162461bcd60e51b815260040180806020018281038252602f815260200180612690602f913960400191505060405180910390fd5b6109d082826115a7565b610a8c7f65d7a28e3265b37a6474929f336521b332c1681b933f6cb9f3376673440d862a6109866112c5565b610ac75760405162461bcd60e51b81526004018080602001828103825260408152602001806126506040913960400191505060405180910390fd5b610acf611610565b565b6108e683838360405180602001604052806000815250610edc565b610af76109076112c5565b610b325760405162461bcd60e51b81526004018080602001828103825260308152602001806126206030913960400191505060405180910390fd5b610b3b816116b0565b50565b600080610b4c60038461177d565b509392505050565b600b5460ff1690565b60006109f9826040518060600160405280602981526020016124c26029913960039190611799565b610bb17f9f2df0fed2c77648de5860a4cc508cd0818c85b8b8a1ab4ceeef8d981c8956a66109866112c5565b610bec5760405162461bcd60e51b815260040180806020018281038252603d8152602001806125e3603d913960400191505060405180910390fd5b610bff81610bfa600c6117b0565b6117b4565b610b3b600c6118e2565b600a8054604080516020601f60026000196101006001881615020190951694909404938401819004810282018101909252828152606093909290918301828280156107a45780601f10610779576101008083540402835291602001916107a4565b60006001600160a01b038216610cb15760405162461bcd60e51b815260040180806020018281038252602a815260200180612498602a913960400191505060405180910390fd5b6001600160a01b03821660009081526002602052604090206109f990611337565b610cfe7f65d7a28e3265b37a6474929f336521b332c1681b933f6cb9f3376673440d862a6109866112c5565b610d395760405162461bcd60e51b815260040180806020018281038252603e8152602001806123a2603e913960400191505060405180910390fd5b610acf6118eb565b60008281526020819052604081206109f6908361159b565b60008281526020819052604081206109f6908361196e565b60088054604080516020601f60026000196101006001881615020190951694909404938401819004810282018101909252828152606093909290918301828280156107a45780601f10610779576101008083540402835291602001916107a4565b600081565b610ddf6112c5565b6001600160a01b0316826001600160a01b03161415610e45576040805162461bcd60e51b815260206004820152601960248201527f4552433732313a20617070726f766520746f2063616c6c657200000000000000604482015290519081900360640190fd5b8060066000610e526112c5565b6001600160a01b03908116825260208083019390935260409182016000908120918716808252919093529120805460ff191692151592909217909155610e966112c5565b6001600160a01b03167f17307eab39ab6107e8899845ad3d59bd9653f200f220920489ca2b5937696c318360405180821515815260200191505060405180910390a35050565b610eed610ee76112c5565b83611342565b610f285760405162461bcd60e51b81526004018080602001828103825260318152602001806125b26031913960400191505060405180910390fd5b610f3484848484611983565b50505050565b6060610f45826112b8565b610f805760405162461bcd60e51b815260040180806020018281038252602f815260200180612562602f913960400191505060405180910390fd5b60008281526009602090815260409182902080548351601f60026000196101006001861615020190931692909204918201849004840281018401909452808452606093928301828280156110155780601f10610fea57610100808354040283529160200191611015565b820191906000526020600020905b815481529060010190602001808311610ff857829003601f168201915b505050505090506060611026610c09565b905080516000141561103a57509050610713565b8151156110fb5780826040516020018083805190602001908083835b602083106110755780518252601f199092019160209182019101611056565b51815160209384036101000a600019018019909216911617905285519190930192850191508083835b602083106110bd5780518252601f19909201916020918201910161109e565b6001836020036101000a0380198251168184511680821785525050505050509050019250505060405160208183030381529060405292505050610713565b80611105856119d5565b6040516020018083805190602001908083835b602083106111375780518252601f199092019160209182019101611118565b51815160209384036101000a600019018019909216911617905285519190930192850191508083835b6020831061117f5780518252601f199092019160209182019101611160565b6001836020036101000a0380198251168184511680821785525050505050509050019250505060405160208183030381529060405292505050919050565b60008181526020819052604081206109f990611337565b7f9f2df0fed2c77648de5860a4cc508cd0818c85b8b8a1ab4ceeef8d981c8956a681565b600082815260208190526040902060020154611216906109866112c5565b610a565760405162461bcd60e51b81526004018080602001828103825260308152602001806124306030913960400191505060405180910390fd5b7f65d7a28e3265b37a6474929f336521b332c1681b933f6cb9f3376673440d862a81565b6001600160a01b03918216600090815260066020908152604080832093909416825291909152205460ff1690565b60006109f6836001600160a01b038416611ab0565b60006109f9600383611afa565b3390565b600081815260056020526040902080546001600160a01b0319166001600160a01b03841690811790915581906112fe82610b5d565b6001600160a01b03167f8c5be1e5ebec7d5bd14f71427d1e84f3dd0314c0f7b2291e5b200ac8c7c3b92560405160405180910390a45050565b60006109f9826117b0565b600061134d826112b8565b6113885760405162461bcd60e51b815260040180806020018281038252602c815260200180612404602c913960400191505060405180910390fd5b600061139383610b5d565b9050806001600160a01b0316846001600160a01b031614806113ce5750836001600160a01b03166113c3846107ae565b6001600160a01b0316145b806113de57506113de8185611275565b949350505050565b826001600160a01b03166113f982610b5d565b6001600160a01b03161461143e5760405162461bcd60e51b81526004018080602001828103825260298152602001806125396029913960400191505060405180910390fd5b6001600160a01b0382166114835760405162461bcd60e51b81526004018080602001828103825260248152602001806123e06024913960400191505060405180910390fd5b61148e838383611b06565b6114996000826112c9565b6001600160a01b03831660009081526002602052604090206114bb9082611b11565b506001600160a01b03821660009081526002602052604090206114de9082611b1d565b506114eb60038284611b29565b5080826001600160a01b0316846001600160a01b03167fddf252ad1be2c89b69c2b068fc378daa952ba7f163c4a11628f55a4df523b3ef60405160405180910390a4505050565b600082815260208190526040902061154a90826112a3565b156109d0576115576112c5565b6001600160a01b0316816001600160a01b0316837f2f8788117e7eff1d82e926ec794901d17c78024a50270940304540a733656f0d60405160405180910390a45050565b60006109f68383611b3f565b60008281526020819052604090206115bf9082611ba3565b156109d0576115cc6112c5565b6001600160a01b0316816001600160a01b0316837ff6391f5c32d9c69d2a47ea670b442974b53935d1edc7fd64eb21e047a839171b60405160405180910390a45050565b611618610b54565b611660576040805162461bcd60e51b815260206004820152601460248201527314185d5cd8589b194e881b9bdd081c185d5cd95960621b604482015290519081900360640190fd5b600b805460ff191690557f5db9ee0a495bf2e6ff9c91a7834c1ba4fdd244a5e8aa4e537bd38aeae4b073aa6116936112c5565b604080516001600160a01b039092168252519081900360200190a1565b60006116bb82610b5d565b90506116c981600084611b06565b6116d46000836112c9565b60008281526009602052604090205460026000196101006001841615020190911604156117125760008281526009602052604081206117129161229b565b6001600160a01b03811660009081526002602052604090206117349083611b11565b50611740600383611bb8565b5060405182906000906001600160a01b038416907fddf252ad1be2c89b69c2b068fc378daa952ba7f163c4a11628f55a4df523b3ef908390a45050565b600080808061178c8686611bc4565b9097909650945050505050565b60006117a6848484611c3f565b90505b9392505050565b5490565b6001600160a01b03821661180f576040805162461bcd60e51b815260206004820181905260248201527f4552433732313a206d696e7420746f20746865207a65726f2061646472657373604482015290519081900360640190fd5b611818816112b8565b1561186a576040805162461bcd60e51b815260206004820152601c60248201527f4552433732313a20746f6b656e20616c7265616479206d696e74656400000000604482015290519081900360640190fd5b61187660008383611b06565b6001600160a01b03821660009081526002602052604090206118989082611b1d565b506118a560038284611b29565b5060405181906001600160a01b038416906000907fddf252ad1be2c89b69c2b068fc378daa952ba7f163c4a11628f55a4df523b3ef908290a45050565b80546001019055565b6118f3610b54565b15611938576040805162461bcd60e51b815260206004820152601060248201526f14185d5cd8589b194e881c185d5cd95960821b604482015290519081900360640190fd5b600b805460ff191660011790557f62e78cea01bee320cd4e420270b5ea74000d11b0c9f74754ebdbfc544b05a2586116936112c5565b60006109f6836001600160a01b038416611d09565b61198e8484846113e6565b61199a84848484611d21565b610f345760405162461bcd60e51b81526004018080602001828103825260328152602001806123706032913960400191505060405180910390fd5b6060816119fa57506040805180820190915260018152600360fc1b6020820152610713565b8160005b8115611a1257600101600a820491506119fe565b60608167ffffffffffffffff81118015611a2b57600080fd5b506040519080825280601f01601f191660200182016040528015611a56576020820181803683370190505b50859350905060001982015b8315611aa757600a840660300160f81b82828060019003935081518110611a8557fe5b60200101906001600160f81b031916908160001a905350600a84049350611a62565b50949350505050565b6000611abc8383611d09565b611af2575081546001818101845560008481526020808220909301849055845484825282860190935260409020919091556109f9565b5060006109f9565b60006109f68383611d09565b6108e6838383611e89565b60006109f68383611ed8565b60006109f68383611ab0565b60006117a684846001600160a01b038516611f9e565b81546000908210611b815760405162461bcd60e51b81526004018080602001828103825260228152602001806122f46022913960400191505060405180910390fd5b826000018281548110611b9057fe5b9060005260206000200154905092915050565b60006109f6836001600160a01b038416611ed8565b60006109f68383612035565b815460009081908310611c085760405162461bcd60e51b81526004018080602001828103825260228152602001806124eb6022913960400191505060405180910390fd5b6000846000018481548110611c1957fe5b906000526020600020906002020190508060000154816001015492509250509250929050565b60008281526001840160205260408120548281611cda5760405162461bcd60e51b81526004018080602001828103825283818151815260200191508051906020019080838360005b83811015611c9f578181015183820152602001611c87565b50505050905090810190601f168015611ccc5780820380516001836020036101000a031916815260200191505b509250505060405180910390fd5b50846000016001820381548110611ced57fe5b9060005260206000209060020201600101549150509392505050565b60009081526001919091016020526040902054151590565b6000611d35846001600160a01b0316612109565b611d41575060016113de565b6060611e4f630a85bd0160e11b611d566112c5565b88878760405160240180856001600160a01b03168152602001846001600160a01b0316815260200183815260200180602001828103825283818151815260200191508051906020019080838360005b83811015611dbd578181015183820152602001611da5565b50505050905090810190601f168015611dea5780820380516001836020036101000a031916815260200191505b5095505050505050604051602081830303815290604052906001600160e01b0319166020820180516001600160e01b038381831617835250505050604051806060016040528060328152602001612370603291396001600160a01b038816919061210f565b90506000818060200190516020811015611e6857600080fd5b50516001600160e01b031916630a85bd0160e11b1492505050949350505050565b611e948383836108e6565b611e9c610b54565b156108e65760405162461bcd60e51b815260040180806020018281038252602b815260200180612316602b913960400191505060405180910390fd5b60008181526001830160205260408120548015611f945783546000198083019190810190600090879083908110611f0b57fe5b9060005260206000200154905080876000018481548110611f2857fe5b600091825260208083209091019290925582815260018981019092526040902090840190558654879080611f5857fe5b600190038181906000526020600020016000905590558660010160008781526020019081526020016000206000905560019450505050506109f9565b60009150506109f9565b6000828152600184016020526040812054806120035750506040805180820182528381526020808201848152865460018181018955600089815284812095516002909302909501918255915190820155865486845281880190925292909120556117a9565b8285600001600183038154811061201657fe5b90600052602060002090600202016001018190555060009150506117a9565b60008181526001830160205260408120548015611f94578354600019808301919081019060009087908390811061206857fe5b906000526020600020906002020190508087600001848154811061208857fe5b6000918252602080832084546002909302019182556001938401549184019190915583548252898301905260409020908401905586548790806120c757fe5b60008281526020808220600260001990940193840201828155600190810183905592909355888152898201909252604082209190915594506109f99350505050565b3b151590565b60606117a684846000858561212385612109565b612174576040805162461bcd60e51b815260206004820152601d60248201527f416464726573733a2063616c6c20746f206e6f6e2d636f6e7472616374000000604482015290519081900360640190fd5b60006060866001600160a01b031685876040518082805190602001908083835b602083106121b35780518252601f199092019160209182019101612194565b6001836020036101000a03801982511681845116808217855250505050505090500191505060006040518083038185875af1925050503d8060008114612215576040519150601f19603f3d011682016040523d82523d6000602084013e61221a565b606091505b509150915061222a828286612235565b979650505050505050565b606083156122445750816117a9565b8251156122545782518084602001fd5b60405162461bcd60e51b8152602060048201818152845160248401528451859391928392604401919085019080838360008315611c9f578181015183820152602001611c87565b50805460018160011615610100020316600290046000825580601f106122c15750610b3b565b601f016020900490600052602060002090810190610b3b91905b808211156122ef57600081556001016122db565b509056fe456e756d657261626c655365743a20696e646578206f7574206f6620626f756e64734552433732315061757361626c653a20746f6b656e207472616e73666572207768696c6520706175736564416363657373436f6e74726f6c3a2073656e646572206d75737420626520616e2061646d696e20746f206772616e744552433732313a207472616e7366657220746f206e6f6e20455243373231526563656976657220696d706c656d656e7465724552433732315072657365744d696e7465725061757365724175746f49643a206d75737420686176652070617573657220726f6c6520746f2070617573654552433732313a207472616e7366657220746f20746865207a65726f20616464726573734552433732313a206f70657261746f7220717565727920666f72206e6f6e6578697374656e7420746f6b656e416363657373436f6e74726f6c3a2073656e646572206d75737420626520616e2061646d696e20746f207265766f6b654552433732313a20617070726f76652063616c6c6572206973206e6f74206f776e6572206e6f7220617070726f76656420666f7220616c6c4552433732313a2062616c616e636520717565727920666f7220746865207a65726f20616464726573734552433732313a206f776e657220717565727920666f72206e6f6e6578697374656e7420746f6b656e456e756d657261626c654d61703a20696e646578206f7574206f6620626f756e64734552433732313a20617070726f76656420717565727920666f72206e6f6e6578697374656e7420746f6b656e4552433732313a207472616e73666572206f6620746f6b656e2074686174206973206e6f74206f776e4552433732314d657461646174613a2055524920717565727920666f72206e6f6e6578697374656e7420746f6b656e4552433732313a20617070726f76616c20746f2063757272656e74206f776e65724552433732313a207472616e736665722063616c6c6572206973206e6f74206f776e6572206e6f7220617070726f7665644552433732315072657365744d696e7465725061757365724175746f49643a206d7573742068617665206d696e74657220726f6c6520746f206d696e744552433732314275726e61626c653a2063616c6c6572206973206e6f74206f776e6572206e6f7220617070726f7665644552433732315072657365744d696e7465725061757365724175746f49643a206d75737420686176652070617573657220726f6c6520746f20756e7061757365416363657373436f6e74726f6c3a2063616e206f6e6c792072656e6f756e636520726f6c657320666f722073656c66a2646970667358221220f07a1164c157d5ba0a7898830722f4d9d36d05f8122ff61ccd5a76a6769fb98964736f6c634300060c0033",
  "immutableReferences": {},
  "source": "// SPDX-License-Identifier: MIT\n\npragma solidity >=0.6.0 <0.8.0;\n\nimport \"../access/AccessControl.sol\";\nimport \"../utils/Context.sol\";\nimport \"../utils/Counters.sol\";\nimport \"../token/ERC721/ERC721.sol\";\nimport \"../token/ERC721/ERC721Burnable.sol\";\nimport \"../token/ERC721/ERC721Pausable.sol\";\n\n/**\n * @dev {ERC721} token, including:\n *\n *  - ability for holders to burn (destroy) their tokens\n *  - a minter role that allows for token minting (creation)\n *  - a pauser role that allows to stop all token transfers\n *  - token ID and URI autogeneration\n *\n * This contract uses {AccessControl} to lock permissioned functions using the\n * different roles - head to its documentation for details.\n *\n * The account that deploys the contract will be granted the minter and pauser\n * roles, as well as the default admin role, which will let it grant both minter\n * and pauser roles to other accounts.\n */\ncontract ERC721PresetMinterPauserAutoId is Context, AccessControl, ERC721Burnable, ERC721Pausable {\n    using Counters for Counters.Counter;\n\n    bytes32 public constant MINTER_ROLE = keccak256(\"MINTER_ROLE\");\n    bytes32 public constant PAUSER_ROLE = keccak256(\"PAUSER_ROLE\");\n\n    Counters.Counter private _tokenIdTracker;\n\n    /**\n     * @dev Grants `DEFAULT_ADMIN_ROLE`, `MINTER_ROLE` and `PAUSER_ROLE` to the\n     * account that deploys the contract.\n     *\n     * Token URIs will be autogenerated based on `baseURI` and their token IDs.\n     * See {ERC721-tokenURI}.\n     */\n    constructor(string memory name, string memory symbol, string memory baseURI) public ERC721(name, symbol) {\n        _setupRole(DEFAULT_ADMIN_ROLE, _msgSender());\n\n        _setupRole(MINTER_ROLE, _msgSender());\n        _setupRole(PAUSER_ROLE, _msgSender());\n\n        _setBaseURI(baseURI);\n    }\n\n    /**\n     * @dev Creates a new token for `to`. Its token ID will be automatically\n     * assigned (and available on the emitted {IERC721-Transfer} event), and the token\n     * URI autogenerated based on the base URI passed at construction.\n     *\n     * See {ERC721-_mint}.\n     *\n     * Requirements:\n     *\n     * - the caller must have the `MINTER_ROLE`.\n     */\n    function mint(address to) public virtual {\n        require(hasRole(MINTER_ROLE, _msgSender()), \"ERC721PresetMinterPauserAutoId: must have minter role to mint\");\n\n        // We cannot just use balanceOf to create the new tokenId because tokens\n        // can be burned (destroyed), so we need a separate counter.\n        _mint(to, _tokenIdTracker.current());\n        _tokenIdTracker.increment();\n    }\n\n    /**\n     * @dev Pauses all token transfers.\n     *\n     * See {ERC721Pausable} and {Pausable-_pause}.\n     *\n     * Requirements:\n     *\n     * - the caller must have the `PAUSER_ROLE`.\n     */\n    function pause() public virtual {\n        require(hasRole(PAUSER_ROLE, _msgSender()), \"ERC721PresetMinterPauserAutoId: must have pauser role to pause\");\n        _pause();\n    }\n\n    /**\n     * @dev Unpauses all token transfers.\n     *\n     * See {ERC721Pausable} and {Pausable-_unpause}.\n     *\n     * Requirements:\n     *\n     * - the caller must have the `PAUSER_ROLE`.\n     */\n    function unpause() public virtual {\n        require(hasRole(PAUSER_ROLE, _msgSender()), \"ERC721PresetMinterPauserAutoId: must have pauser role to unpause\");\n        _unpause();\n    }\n\n    function _beforeTokenTransfer(address from, address to, uint256 tokenId) internal virtual override(ERC721, ERC721Pausable) {\n        super._beforeTokenTransfer(from, to, tokenId);\n    }\n}\n",
  "sourcePath": "/home/ethereum/Desktop/NFT_DIR/contracts/presets/ERC721PresetMinterPauserAutoId.sol",
  "compiler": {
    "name": "solc",
    "version": "0.6.12+commit.27d51765.Emscripten.clang"
  },
  "schemaVersion": "3.3.3",
  "updatedAt": "2021-03-23T18:37:54.649Z",
  "networkType": "ethereum",
  "devdoc": {
    "details": "{ERC721} token, including:  - ability for holders to burn (destroy) their tokens  - a minter role that allows for token minting (creation)  - a pauser role that allows to stop all token transfers  - token ID and URI autogeneration This contract uses {AccessControl} to lock permissioned functions using the different roles - head to its documentation for details. The account that deploys the contract will be granted the minter and pauser roles, as well as the default admin role, which will let it grant both minter and pauser roles to other accounts.",
    "kind": "dev",
    "methods": {
      "approve(address,uint256)": {
        "details": "See {IERC721-approve}."
      },
      "balanceOf(address)": {
        "details": "See {IERC721-balanceOf}."
      },
      "baseURI()": {
        "details": "Returns the base URI set via {_setBaseURI}. This will be automatically added as a prefix in {tokenURI} to each token's URI, or to the token ID if no specific URI is set for that token ID."
      },
      "burn(uint256)": {
        "details": "Burns `tokenId`. See {ERC721-_burn}. Requirements: - The caller must own `tokenId` or be an approved operator."
      },
      "constructor": {
        "details": "Grants `DEFAULT_ADMIN_ROLE`, `MINTER_ROLE` and `PAUSER_ROLE` to the account that deploys the contract. Token URIs will be autogenerated based on `baseURI` and their token IDs. See {ERC721-tokenURI}."
      },
      "getApproved(uint256)": {
        "details": "See {IERC721-getApproved}."
      },
      "getRoleAdmin(bytes32)": {
        "details": "Returns the admin role that controls `role`. See {grantRole} and {revokeRole}. To change a role's admin, use {_setRoleAdmin}."
      },
      "getRoleMember(bytes32,uint256)": {
        "details": "Returns one of the accounts that have `role`. `index` must be a value between 0 and {getRoleMemberCount}, non-inclusive. Role bearers are not sorted in any particular way, and their ordering may change at any point. WARNING: When using {getRoleMember} and {getRoleMemberCount}, make sure you perform all queries on the same block. See the following https://forum.openzeppelin.com/t/iterating-over-elements-on-enumerableset-in-openzeppelin-contracts/2296[forum post] for more information."
      },
      "getRoleMemberCount(bytes32)": {
        "details": "Returns the number of accounts that have `role`. Can be used together with {getRoleMember} to enumerate all bearers of a role."
      },
      "grantRole(bytes32,address)": {
        "details": "Grants `role` to `account`. If `account` had not been already granted `role`, emits a {RoleGranted} event. Requirements: - the caller must have ``role``'s admin role."
      },
      "hasRole(bytes32,address)": {
        "details": "Returns `true` if `account` has been granted `role`."
      },
      "isApprovedForAll(address,address)": {
        "details": "See {IERC721-isApprovedForAll}."
      },
      "mint(address)": {
        "details": "Creates a new token for `to`. Its token ID will be automatically assigned (and available on the emitted {IERC721-Transfer} event), and the token URI autogenerated based on the base URI passed at construction. See {ERC721-_mint}. Requirements: - the caller must have the `MINTER_ROLE`."
      },
      "name()": {
        "details": "See {IERC721Metadata-name}."
      },
      "ownerOf(uint256)": {
        "details": "See {IERC721-ownerOf}."
      },
      "pause()": {
        "details": "Pauses all token transfers. See {ERC721Pausable} and {Pausable-_pause}. Requirements: - the caller must have the `PAUSER_ROLE`."
      },
      "paused()": {
        "details": "Returns true if the contract is paused, and false otherwise."
      },
      "renounceRole(bytes32,address)": {
        "details": "Revokes `role` from the calling account. Roles are often managed via {grantRole} and {revokeRole}: this function's purpose is to provide a mechanism for accounts to lose their privileges if they are compromised (such as when a trusted device is misplaced). If the calling account had been granted `role`, emits a {RoleRevoked} event. Requirements: - the caller must be `account`."
      },
      "revokeRole(bytes32,address)": {
        "details": "Revokes `role` from `account`. If `account` had been granted `role`, emits a {RoleRevoked} event. Requirements: - the caller must have ``role``'s admin role."
      },
      "safeTransferFrom(address,address,uint256)": {
        "details": "See {IERC721-safeTransferFrom}."
      },
      "safeTransferFrom(address,address,uint256,bytes)": {
        "details": "See {IERC721-safeTransferFrom}."
      },
      "setApprovalForAll(address,bool)": {
        "details": "See {IERC721-setApprovalForAll}."
      },
      "supportsInterface(bytes4)": {
        "details": "See {IERC165-supportsInterface}. Time complexity O(1), guaranteed to always use less than 30 000 gas."
      },
      "symbol()": {
        "details": "See {IERC721Metadata-symbol}."
      },
      "tokenByIndex(uint256)": {
        "details": "See {IERC721Enumerable-tokenByIndex}."
      },
      "tokenOfOwnerByIndex(address,uint256)": {
        "details": "See {IERC721Enumerable-tokenOfOwnerByIndex}."
      },
      "tokenURI(uint256)": {
        "details": "See {IERC721Metadata-tokenURI}."
      },
      "totalSupply()": {
        "details": "See {IERC721Enumerable-totalSupply}."
      },
      "transferFrom(address,address,uint256)": {
        "details": "See {IERC721-transferFrom}."
      },
      "unpause()": {
        "details": "Unpauses all token transfers. See {ERC721Pausable} and {Pausable-_unpause}. Requirements: - the caller must have the `PAUSER_ROLE`."
      }
    },
    "version": 1
  },
  "userdoc": {
    "kind": "user",
    "methods": {},
    "version": 1
  }
}