{
  "contractName": "ERC777",
  "abi": [
    {
      "inputs": [
        {
          "internalType": "string",
          "name": "name_",
          "type": "string"
        },
        {
          "internalType": "string",
          "name": "symbol_",
          "type": "string"
        },
        {
          "internalType": "address[]",
          "name": "defaultOperators_",
          "type": "address[]"
        }
      ],
      "stateMutability": "nonpayable",
      "type": "constructor"
    },
    {
      "anonymous": false,
      "inputs": [
        {
          "indexed": true,
          "internalType": "address",
          "name": "owner",
          "type": "address"
        },
        {
          "indexed": true,
          "internalType": "address",
          "name": "spender",
          "type": "address"
        },
        {
          "indexed": false,
          "internalType": "uint256",
          "name": "value",
          "type": "uint256"
        }
      ],
      "name": "Approval",
      "type": "event"
    },
    {
      "anonymous": false,
      "inputs": [
        {
          "indexed": true,
          "internalType": "address",
          "name": "operator",
          "type": "address"
        },
        {
          "indexed": true,
          "internalType": "address",
          "name": "tokenHolder",
          "type": "address"
        }
      ],
      "name": "AuthorizedOperator",
      "type": "event"
    },
    {
      "anonymous": false,
      "inputs": [
        {
          "indexed": true,
          "internalType": "address",
          "name": "operator",
          "type": "address"
        },
        {
          "indexed": true,
          "internalType": "address",
          "name": "from",
          "type": "address"
        },
        {
          "indexed": false,
          "internalType": "uint256",
          "name": "amount",
          "type": "uint256"
        },
        {
          "indexed": false,
          "internalType": "bytes",
          "name": "data",
          "type": "bytes"
        },
        {
          "indexed": false,
          "internalType": "bytes",
          "name": "operatorData",
          "type": "bytes"
        }
      ],
      "name": "Burned",
      "type": "event"
    },
    {
      "anonymous": false,
      "inputs": [
        {
          "indexed": true,
          "internalType": "address",
          "name": "operator",
          "type": "address"
        },
        {
          "indexed": true,
          "internalType": "address",
          "name": "to",
          "type": "address"
        },
        {
          "indexed": false,
          "internalType": "uint256",
          "name": "amount",
          "type": "uint256"
        },
        {
          "indexed": false,
          "internalType": "bytes",
          "name": "data",
          "type": "bytes"
        },
        {
          "indexed": false,
          "internalType": "bytes",
          "name": "operatorData",
          "type": "bytes"
        }
      ],
      "name": "Minted",
      "type": "event"
    },
    {
      "anonymous": false,
      "inputs": [
        {
          "indexed": true,
          "internalType": "address",
          "name": "operator",
          "type": "address"
        },
        {
          "indexed": true,
          "internalType": "address",
          "name": "tokenHolder",
          "type": "address"
        }
      ],
      "name": "RevokedOperator",
      "type": "event"
    },
    {
      "anonymous": false,
      "inputs": [
        {
          "indexed": true,
          "internalType": "address",
          "name": "operator",
          "type": "address"
        },
        {
          "indexed": true,
          "internalType": "address",
          "name": "from",
          "type": "address"
        },
        {
          "indexed": true,
          "internalType": "address",
          "name": "to",
          "type": "address"
        },
        {
          "indexed": false,
          "internalType": "uint256",
          "name": "amount",
          "type": "uint256"
        },
        {
          "indexed": false,
          "internalType": "bytes",
          "name": "data",
          "type": "bytes"
        },
        {
          "indexed": false,
          "internalType": "bytes",
          "name": "operatorData",
          "type": "bytes"
        }
      ],
      "name": "Sent",
      "type": "event"
    },
    {
      "anonymous": false,
      "inputs": [
        {
          "indexed": true,
          "internalType": "address",
          "name": "from",
          "type": "address"
        },
        {
          "indexed": true,
          "internalType": "address",
          "name": "to",
          "type": "address"
        },
        {
          "indexed": false,
          "internalType": "uint256",
          "name": "value",
          "type": "uint256"
        }
      ],
      "name": "Transfer",
      "type": "event"
    },
    {
      "inputs": [],
      "name": "name",
      "outputs": [
        {
          "internalType": "string",
          "name": "",
          "type": "string"
        }
      ],
      "stateMutability": "view",
      "type": "function"
    },
    {
      "inputs": [],
      "name": "symbol",
      "outputs": [
        {
          "internalType": "string",
          "name": "",
          "type": "string"
        }
      ],
      "stateMutability": "view",
      "type": "function"
    },
    {
      "inputs": [],
      "name": "decimals",
      "outputs": [
        {
          "internalType": "uint8",
          "name": "",
          "type": "uint8"
        }
      ],
      "stateMutability": "pure",
      "type": "function"
    },
    {
      "inputs": [],
      "name": "granularity",
      "outputs": [
        {
          "internalType": "uint256",
          "name": "",
          "type": "uint256"
        }
      ],
      "stateMutability": "view",
      "type": "function"
    },
    {
      "inputs": [],
      "name": "totalSupply",
      "outputs": [
        {
          "internalType": "uint256",
          "name": "",
          "type": "uint256"
        }
      ],
      "stateMutability": "view",
      "type": "function"
    },
    {
      "inputs": [
        {
          "internalType": "address",
          "name": "tokenHolder",
          "type": "address"
        }
      ],
      "name": "balanceOf",
      "outputs": [
        {
          "internalType": "uint256",
          "name": "",
          "type": "uint256"
        }
      ],
      "stateMutability": "view",
      "type": "function"
    },
    {
      "inputs": [
        {
          "internalType": "address",
          "name": "recipient",
          "type": "address"
        },
        {
          "internalType": "uint256",
          "name": "amount",
          "type": "uint256"
        },
        {
          "internalType": "bytes",
          "name": "data",
          "type": "bytes"
        }
      ],
      "name": "send",
      "outputs": [],
      "stateMutability": "nonpayable",
      "type": "function"
    },
    {
      "inputs": [
        {
          "internalType": "address",
          "name": "recipient",
          "type": "address"
        },
        {
          "internalType": "uint256",
          "name": "amount",
          "type": "uint256"
        }
      ],
      "name": "transfer",
      "outputs": [
        {
          "internalType": "bool",
          "name": "",
          "type": "bool"
        }
      ],
      "stateMutability": "nonpayable",
      "type": "function"
    },
    {
      "inputs": [
        {
          "internalType": "uint256",
          "name": "amount",
          "type": "uint256"
        },
        {
          "internalType": "bytes",
          "name": "data",
          "type": "bytes"
        }
      ],
      "name": "burn",
      "outputs": [],
      "stateMutability": "nonpayable",
      "type": "function"
    },
    {
      "inputs": [
        {
          "internalType": "address",
          "name": "operator",
          "type": "address"
        },
        {
          "internalType": "address",
          "name": "tokenHolder",
          "type": "address"
        }
      ],
      "name": "isOperatorFor",
      "outputs": [
        {
          "internalType": "bool",
          "name": "",
          "type": "bool"
        }
      ],
      "stateMutability": "view",
      "type": "function"
    },
    {
      "inputs": [
        {
          "internalType": "address",
          "name": "operator",
          "type": "address"
        }
      ],
      "name": "authorizeOperator",
      "outputs": [],
      "stateMutability": "nonpayable",
      "type": "function"
    },
    {
      "inputs": [
        {
          "internalType": "address",
          "name": "operator",
          "type": "address"
        }
      ],
      "name": "revokeOperator",
      "outputs": [],
      "stateMutability": "nonpayable",
      "type": "function"
    },
    {
      "inputs": [],
      "name": "defaultOperators",
      "outputs": [
        {
          "internalType": "address[]",
          "name": "",
          "type": "address[]"
        }
      ],
      "stateMutability": "view",
      "type": "function"
    },
    {
      "inputs": [
        {
          "internalType": "address",
          "name": "sender",
          "type": "address"
        },
        {
          "internalType": "address",
          "name": "recipient",
          "type": "address"
        },
        {
          "internalType": "uint256",
          "name": "amount",
          "type": "uint256"
        },
        {
          "internalType": "bytes",
          "name": "data",
          "type": "bytes"
        },
        {
          "internalType": "bytes",
          "name": "operatorData",
          "type": "bytes"
        }
      ],
      "name": "operatorSend",
      "outputs": [],
      "stateMutability": "nonpayable",
      "type": "function"
    },
    {
      "inputs": [
        {
          "internalType": "address",
          "name": "account",
          "type": "address"
        },
        {
          "internalType": "uint256",
          "name": "amount",
          "type": "uint256"
        },
        {
          "internalType": "bytes",
          "name": "data",
          "type": "bytes"
        },
        {
          "internalType": "bytes",
          "name": "operatorData",
          "type": "bytes"
        }
      ],
      "name": "operatorBurn",
      "outputs": [],
      "stateMutability": "nonpayable",
      "type": "function"
    },
    {
      "inputs": [
        {
          "internalType": "address",
          "name": "holder",
          "type": "address"
        },
        {
          "internalType": "address",
          "name": "spender",
          "type": "address"
        }
      ],
      "name": "allowance",
      "outputs": [
        {
          "internalType": "uint256",
          "name": "",
          "type": "uint256"
        }
      ],
      "stateMutability": "view",
      "type": "function"
    },
    {
      "inputs": [
        {
          "internalType": "address",
          "name": "spender",
          "type": "address"
        },
        {
          "internalType": "uint256",
          "name": "value",
          "type": "uint256"
        }
      ],
      "name": "approve",
      "outputs": [
        {
          "internalType": "bool",
          "name": "",
          "type": "bool"
        }
      ],
      "stateMutability": "nonpayable",
      "type": "function"
    },
    {
      "inputs": [
        {
          "internalType": "address",
          "name": "holder",
          "type": "address"
        },
        {
          "internalType": "address",
          "name": "recipient",
          "type": "address"
        },
        {
          "internalType": "uint256",
          "name": "amount",
          "type": "uint256"
        }
      ],
      "name": "transferFrom",
      "outputs": [
        {
          "internalType": "bool",
          "name": "",
          "type": "bool"
        }
      ],
      "stateMutability": "nonpayable",
      "type": "function"
    }
  ],
  "bytecode": "0x60806040523480156200001157600080fd5b506040516200239538038062002395833981810160405260608110156200003757600080fd5b81019080805160405193929190846401000000008211156200005857600080fd5b9083019060208201858111156200006e57600080fd5b82516401000000008111828201881017156200008957600080fd5b82525081516020918201929091019080838360005b83811015620000b85781810151838201526020016200009e565b50505050905090810190601f168015620000e65780820380516001836020036101000a031916815260200191505b50604052602001805160405193929190846401000000008211156200010a57600080fd5b9083019060208201858111156200012057600080fd5b82516401000000008111828201881017156200013b57600080fd5b82525081516020918201929091019080838360005b838110156200016a57818101518382015260200162000150565b50505050905090810190601f168015620001985780820380516001836020036101000a031916815260200191505b5060405260200180516040519392919084640100000000821115620001bc57600080fd5b908301906020820185811115620001d257600080fd5b8251866020820283011164010000000082111715620001f057600080fd5b82525081516020918201928201910280838360005b838110156200021f57818101518382015260200162000205565b5050505091909101604052505084516200024392506002915060208601906200040b565b508151620002599060039060208501906200040b565b5080516200026f90600490602084019062000490565b5060005b600454811015620002cf57600160056000600484815481106200029257fe5b6000918252602080832091909101546001600160a01b031683528201929092526040019020805460ff191691151591909117905560010162000273565b50604080516329965a1d60e01b815230600482018190527fac7fbab5f54a3ca8194167523c6753bfeb96a445279294b6125b68cce2177054602483015260448201529051731820a4b7618bde71dce8cdc73aab6c95905fad24916329965a1d91606480830192600092919082900301818387803b1580156200035057600080fd5b505af115801562000365573d6000803e3d6000fd5b5050604080516329965a1d60e01b815230600482018190527faea199e31a596269b42cdafd93407f14436db6e4cad65417994c2eb37381e05a602483015260448201529051731820a4b7618bde71dce8cdc73aab6c95905fad2493506329965a1d9250606480830192600092919082900301818387803b158015620003e957600080fd5b505af1158015620003fe573d6000803e3d6000fd5b505050505050506200052e565b828054600181600116156101000203166002900490600052602060002090601f016020900481019282601f106200044e57805160ff19168380011785556200047e565b828001600101855582156200047e579182015b828111156200047e57825182559160200191906001019062000461565b506200048c929150620004f6565b5090565b828054828255906000526020600020908101928215620004e8579160200282015b82811115620004e857825182546001600160a01b0319166001600160a01b03909116178255602090920191600190910190620004b1565b506200048c9291506200050d565b5b808211156200048c5760008155600101620004f7565b5b808211156200048c5780546001600160a01b03191681556001016200050e565b611e57806200053e6000396000f3fe608060405234801561001057600080fd5b50600436106101165760003560e01c8063959b8c3f116100a2578063d95b637111610071578063d95b63711461052a578063dd62ed3e14610558578063fad8b32a14610586578063fc673c4f146105ac578063fe9d9303146106ea57610116565b8063959b8c3f1461041757806395d89b411461043d5780639bd9bbc614610445578063a9059cbb146104fe57610116565b806323b872dd116100e957806323b872dd1461024a578063313ce56714610280578063556f0dc71461029e57806362ad1b83146102a657806370a08231146103f157610116565b806306e485381461011b57806306fdde0314610173578063095ea7b3146101f057806318160ddd14610230575b600080fd5b610123610795565b60408051602080825283518183015283519192839290830191858101910280838360005b8381101561015f578181015183820152602001610147565b505050509050019250505060405180910390f35b61017b6107f7565b6040805160208082528351818301528351919283929083019185019080838360005b838110156101b557818101518382015260200161019d565b50505050905090810190601f1680156101e25780820380516001836020036101000a031916815260200191505b509250505060405180910390f35b61021c6004803603604081101561020657600080fd5b506001600160a01b038135169060200135610881565b604080519115158252519081900360200190f35b6102386108a3565b60408051918252519081900360200190f35b61021c6004803603606081101561026057600080fd5b506001600160a01b038135811691602081013590911690604001356108a9565b610288610a26565b6040805160ff9092168252519081900360200190f35b610238610a2b565b6103ef600480360360a08110156102bc57600080fd5b6001600160a01b03823581169260208101359091169160408201359190810190608081016060820135600160201b8111156102f657600080fd5b82018360208201111561030857600080fd5b803590602001918460018302840111600160201b8311171561032957600080fd5b91908080601f0160208091040260200160405190810160405280939291908181526020018383808284376000920191909152509295949360208101935035915050600160201b81111561037b57600080fd5b82018360208201111561038d57600080fd5b803590602001918460018302840111600160201b831117156103ae57600080fd5b91908080601f016020809104026020016040519081016040528093929190818152602001838380828437600092019190915250929550610a30945050505050565b005b6102386004803603602081101561040757600080fd5b50356001600160a01b0316610a92565b6103ef6004803603602081101561042d57600080fd5b50356001600160a01b0316610aad565b61017b610bf9565b6103ef6004803603606081101561045b57600080fd5b6001600160a01b0382351691602081013591810190606081016040820135600160201b81111561048a57600080fd5b82018360208201111561049c57600080fd5b803590602001918460018302840111600160201b831117156104bd57600080fd5b91908080601f016020809104026020016040519081016040528093929190818152602001838380828437600092019190915250929550610c5a945050505050565b61021c6004803603604081101561051457600080fd5b506001600160a01b038135169060200135610c84565b61021c6004803603604081101561054057600080fd5b506001600160a01b0381358116916020013516610d5d565b6102386004803603604081101561056e57600080fd5b506001600160a01b0381358116916020013516610dff565b6103ef6004803603602081101561059c57600080fd5b50356001600160a01b0316610e2a565b6103ef600480360360808110156105c257600080fd5b6001600160a01b0382351691602081013591810190606081016040820135600160201b8111156105f157600080fd5b82018360208201111561060357600080fd5b803590602001918460018302840111600160201b8311171561062457600080fd5b91908080601f0160208091040260200160405190810160405280939291908181526020018383808284376000920191909152509295949360208101935035915050600160201b81111561067657600080fd5b82018360208201111561068857600080fd5b803590602001918460018302840111600160201b831117156106a957600080fd5b91908080601f016020809104026020016040519081016040528093929190818152602001838380828437600092019190915250929550610f76945050505050565b6103ef6004803603604081101561070057600080fd5b81359190810190604081016020820135600160201b81111561072157600080fd5b82018360208201111561073357600080fd5b803590602001918460018302840111600160201b8311171561075457600080fd5b91908080601f016020809104026020016040519081016040528093929190818152602001838380828437600092019190915250929550610fd4945050505050565b606060048054806020026020016040519081016040528092919081815260200182805480156107ed57602002820191906000526020600020905b81546001600160a01b031681526001909101906020018083116107cf575b5050505050905090565b60028054604080516020601f60001961010060018716150201909416859004938401819004810282018101909252828152606093909290918301828280156107ed5780601f10610855576101008083540402835291602001916107ed565b820191906000526020600020905b81548152906001019060200180831161086357509395945050505050565b60008061088c610ffa565b9050610899818585610ffe565b5060019392505050565b60015490565b60006001600160a01b0383166108f05760405162461bcd60e51b8152600401808060200182810382526024815260200180611d3d6024913960400191505060405180910390fd5b6001600160a01b0384166109355760405162461bcd60e51b8152600401808060200182810382526026815260200180611db66026913960400191505060405180910390fd5b600061093f610ffa565b905061096d8186868660405180602001604052806000815250604051806020016040528060008152506110ea565b610999818686866040518060200160405280600081525060405180602001604052806000815250611317565b6109ed85826109e886604051806060016040528060298152602001611d8d602991396001600160a01b03808c166000908152600860209081526040808320938b16835292905220549190611530565b610ffe565b610a1b81868686604051806020016040528060008152506040518060200160405280600081525060006115c7565b506001949350505050565b601290565b600190565b610a41610a3b610ffa565b86610d5d565b610a7c5760405162461bcd60e51b815260040180806020018281038252602c815260200180611d61602c913960400191505060405180910390fd5b610a8b8585858585600161184c565b5050505050565b6001600160a01b031660009081526020819052604090205490565b806001600160a01b0316610abf610ffa565b6001600160a01b03161415610b055760405162461bcd60e51b8152600401808060200182810382526024815260200180611cab6024913960400191505060405180910390fd5b6001600160a01b03811660009081526005602052604090205460ff1615610b685760076000610b32610ffa565b6001600160a01b03908116825260208083019390935260409182016000908120918516815292529020805460ff19169055610baf565b600160066000610b76610ffa565b6001600160a01b03908116825260208083019390935260409182016000908120918616815292529020805460ff19169115159190911790555b610bb7610ffa565b6001600160a01b0316816001600160a01b03167ff4caeb2d6ca8932a215a353d0703c326ec2d81fc68170f320eb2ab49e9df61f960405160405180910390a350565b60038054604080516020601f60026000196101006001881615020190951694909404938401819004810282018101909252828152606093909290918301828280156107ed5780601f10610855576101008083540402835291602001916107ed565b610c7f610c65610ffa565b84848460405180602001604052806000815250600161184c565b505050565b60006001600160a01b038316610ccb5760405162461bcd60e51b8152600401808060200182810382526024815260200180611d3d6024913960400191505060405180910390fd5b6000610cd5610ffa565b9050610d038182868660405180602001604052806000815250604051806020016040528060008152506110ea565b610d2f818286866040518060200160405280600081525060405180602001604052806000815250611317565b61089981828686604051806020016040528060008152506040518060200160405280600081525060006115c7565b6000816001600160a01b0316836001600160a01b03161480610dc857506001600160a01b03831660009081526005602052604090205460ff168015610dc857506001600160a01b0380831660009081526007602090815260408083209387168352929052205460ff16155b80610df857506001600160a01b0380831660009081526006602090815260408083209387168352929052205460ff165b9392505050565b6001600160a01b03918216600090815260086020908152604080832093909416825291909152205490565b610e32610ffa565b6001600160a01b0316816001600160a01b03161415610e825760405162461bcd60e51b8152600401808060200182810382526021815260200180611ccf6021913960400191505060405180910390fd5b6001600160a01b03811660009081526005602052604090205460ff1615610eee57600160076000610eb1610ffa565b6001600160a01b03908116825260208083019390935260409182016000908120918616815292529020805460ff1916911515919091179055610f2c565b60066000610efa610ffa565b6001600160a01b03908116825260208083019390935260409182016000908120918516815292529020805460ff191690555b610f34610ffa565b6001600160a01b0316816001600160a01b03167f50546e66e5f44d728365dc3908c63bc5cfeeab470722c1677e3073a6ac294aa160405160405180910390a350565b610f87610f81610ffa565b85610d5d565b610fc25760405162461bcd60e51b815260040180806020018281038252602c815260200180611d61602c913960400191505060405180910390fd5b610fce84848484611923565b50505050565b610ff6610fdf610ffa565b838360405180602001604052806000815250611923565b5050565b3390565b6001600160a01b0383166110435760405162461bcd60e51b8152600401808060200182810382526025815260200180611c1b6025913960400191505060405180910390fd5b6001600160a01b0382166110885760405162461bcd60e51b8152600401808060200182810382526023815260200180611dff6023913960400191505060405180910390fd5b6001600160a01b03808416600081815260086020908152604080832094871680845294825291829020859055815185815291517f8c5be1e5ebec7d5bd14f71427d1e84f3dd0314c0f7b2291e5b200ac8c7c3b9259281900390910190a3505050565b6040805163555ddc6560e11b81526001600160a01b03871660048201527f29ddb589b1fb5fc7cf394961c1adf5f8c6454761adf795e67fe149f658abe89560248201529051600091731820a4b7618bde71dce8cdc73aab6c95905fad249163aabbb8ca91604480820192602092909190829003018186803b15801561116e57600080fd5b505afa158015611182573d6000803e3d6000fd5b505050506040513d602081101561119857600080fd5b505190506001600160a01b0381161561130e57806001600160a01b03166375ab97828888888888886040518763ffffffff1660e01b815260040180876001600160a01b03168152602001866001600160a01b03168152602001856001600160a01b031681526020018481526020018060200180602001838103835285818151815260200191508051906020019080838360005b8381101561124357818101518382015260200161122b565b50505050905090810190601f1680156112705780820380516001836020036101000a031916815260200191505b50838103825284518152845160209182019186019080838360005b838110156112a357818101518382015260200161128b565b50505050905090810190601f1680156112d05780820380516001836020036101000a031916815260200191505b5098505050505050505050600060405180830381600087803b1580156112f557600080fd5b505af1158015611309573d6000803e3d6000fd5b505050505b50505050505050565b61132386868686610fce565b61136083604051806060016040528060278152602001611c62602791396001600160a01b0388166000908152602081905260409020549190611530565b6001600160a01b03808716600090815260208190526040808220939093559086168152205461138f9084611b5d565b600080866001600160a01b03166001600160a01b0316815260200190815260200160002081905550836001600160a01b0316856001600160a01b0316876001600160a01b03167f06b541ddaa720db2b10a4d0cdac39b8d360425fc073085fac19bc82614677987868686604051808481526020018060200180602001838103835285818151815260200191508051906020019080838360005b83811015611440578181015183820152602001611428565b50505050905090810190601f16801561146d5780820380516001836020036101000a031916815260200191505b50838103825284518152845160209182019186019080838360005b838110156114a0578181015183820152602001611488565b50505050905090810190601f1680156114cd5780820380516001836020036101000a031916815260200191505b509550505050505060405180910390a4836001600160a01b0316856001600160a01b03167fddf252ad1be2c89b69c2b068fc378daa952ba7f163c4a11628f55a4df523b3ef856040518082815260200191505060405180910390a3505050505050565b600081848411156115bf5760405162461bcd60e51b81526004018080602001828103825283818151815260200191508051906020019080838360005b8381101561158457818101518382015260200161156c565b50505050905090810190601f1680156115b15780820380516001836020036101000a031916815260200191505b509250505060405180910390fd5b505050900390565b6040805163555ddc6560e11b81526001600160a01b03871660048201527fb281fc8c12954d22544db45de3159a39272895b169a852b314f9cc762e44c53b60248201529051600091731820a4b7618bde71dce8cdc73aab6c95905fad249163aabbb8ca91604480820192602092909190829003018186803b15801561164b57600080fd5b505afa15801561165f573d6000803e3d6000fd5b505050506040513d602081101561167557600080fd5b505190506001600160a01b038116156117ee57806001600160a01b03166223de298989898989896040518763ffffffff1660e01b815260040180876001600160a01b03168152602001866001600160a01b03168152602001856001600160a01b031681526020018481526020018060200180602001838103835285818151815260200191508051906020019080838360005b8381101561171f578181015183820152602001611707565b50505050905090810190601f16801561174c5780820380516001836020036101000a031916815260200191505b50838103825284518152845160209182019186019080838360005b8381101561177f578181015183820152602001611767565b50505050905090810190601f1680156117ac5780820380516001836020036101000a031916815260200191505b5098505050505050505050600060405180830381600087803b1580156117d157600080fd5b505af11580156117e5573d6000803e3d6000fd5b50505050611842565b811561184257611806866001600160a01b0316611bb7565b156118425760405162461bcd60e51b815260040180806020018281038252604d815260200180611cf0604d913960600191505060405180910390fd5b5050505050505050565b6001600160a01b0386166118915760405162461bcd60e51b8152600401808060200182810382526022815260200180611c406022913960400191505060405180910390fd5b6001600160a01b0385166118ec576040805162461bcd60e51b815260206004820181905260248201527f4552433737373a2073656e6420746f20746865207a65726f2061646472657373604482015290519081900360640190fd5b60006118f6610ffa565b90506119068188888888886110ea565b611914818888888888611317565b61130e818888888888886115c7565b6001600160a01b0384166119685760405162461bcd60e51b8152600401808060200182810382526022815260200180611c896022913960400191505060405180910390fd5b6000611972610ffa565b9050611983818660008787876110ea565b6119908186600087610fce565b6119cd84604051806060016040528060238152602001611ddc602391396001600160a01b0388166000908152602081905260409020549190611530565b6001600160a01b0386166000908152602081905260409020556001546119f39085611bbd565b600181905550846001600160a01b0316816001600160a01b03167fa78a9be3a7b862d26933ad85fb11d80ef66b8f972d7cbba06621d583943a4098868686604051808481526020018060200180602001838103835285818151815260200191508051906020019080838360005b83811015611a78578181015183820152602001611a60565b50505050905090810190601f168015611aa55780820380516001836020036101000a031916815260200191505b50838103825284518152845160209182019186019080838360005b83811015611ad8578181015183820152602001611ac0565b50505050905090810190601f168015611b055780820380516001836020036101000a031916815260200191505b509550505050505060405180910390a36040805185815290516000916001600160a01b038816917fddf252ad1be2c89b69c2b068fc378daa952ba7f163c4a11628f55a4df523b3ef9181900360200190a35050505050565b600082820183811015610df8576040805162461bcd60e51b815260206004820152601b60248201527f536166654d6174683a206164646974696f6e206f766572666c6f770000000000604482015290519081900360640190fd5b3b151590565b600082821115611c14576040805162461bcd60e51b815260206004820152601e60248201527f536166654d6174683a207375627472616374696f6e206f766572666c6f770000604482015290519081900360640190fd5b5090039056fe4552433737373a20617070726f76652066726f6d20746865207a65726f20616464726573734552433737373a2073656e642066726f6d20746865207a65726f20616464726573734552433737373a207472616e7366657220616d6f756e7420657863656564732062616c616e63654552433737373a206275726e2066726f6d20746865207a65726f20616464726573734552433737373a20617574686f72697a696e672073656c66206173206f70657261746f724552433737373a207265766f6b696e672073656c66206173206f70657261746f724552433737373a20746f6b656e20726563697069656e7420636f6e747261637420686173206e6f20696d706c656d656e74657220666f7220455243373737546f6b656e73526563697069656e744552433737373a207472616e7366657220746f20746865207a65726f20616464726573734552433737373a2063616c6c6572206973206e6f7420616e206f70657261746f7220666f7220686f6c6465724552433737373a207472616e7366657220616d6f756e74206578636565647320616c6c6f77616e63654552433737373a207472616e736665722066726f6d20746865207a65726f20616464726573734552433737373a206275726e20616d6f756e7420657863656564732062616c616e63654552433737373a20617070726f766520746f20746865207a65726f2061646472657373a2646970667358221220d17684647cde7c549a4c6d251d6c7b10ce6b0931ad19b1ad56344f6ac02d5b7c64736f6c634300060c0033",
  "immutableReferences": {},
  "source": "// SPDX-License-Identifier: MIT\n\npragma solidity >=0.6.0 <0.8.0;\n\nimport \"../../utils/Context.sol\";\nimport \"./IERC777.sol\";\nimport \"./IERC777Recipient.sol\";\nimport \"./IERC777Sender.sol\";\nimport \"../../token/ERC20/IERC20.sol\";\nimport \"../../math/SafeMath.sol\";\nimport \"../../utils/Address.sol\";\nimport \"../../introspection/IERC1820Registry.sol\";\n\n/**\n * @dev Implementation of the {IERC777} interface.\n *\n * This implementation is agnostic to the way tokens are created. This means\n * that a supply mechanism has to be added in a derived contract using {_mint}.\n *\n * Support for ERC20 is included in this contract, as specified by the EIP: both\n * the ERC777 and ERC20 interfaces can be safely used when interacting with it.\n * Both {IERC777-Sent} and {IERC20-Transfer} events are emitted on token\n * movements.\n *\n * Additionally, the {IERC777-granularity} value is hard-coded to `1`, meaning that there\n * are no special restrictions in the amount of tokens that created, moved, or\n * destroyed. This makes integration with ERC20 applications seamless.\n */\ncontract ERC777 is Context, IERC777, IERC20 {\n    using SafeMath for uint256;\n    using Address for address;\n\n    IERC1820Registry constant internal _ERC1820_REGISTRY = IERC1820Registry(0x1820a4B7618BdE71Dce8cdc73aAB6C95905faD24);\n\n    mapping(address => uint256) private _balances;\n\n    uint256 private _totalSupply;\n\n    string private _name;\n    string private _symbol;\n\n    // We inline the result of the following hashes because Solidity doesn't resolve them at compile time.\n    // See https://github.com/ethereum/solidity/issues/4024.\n\n    // keccak256(\"ERC777TokensSender\")\n    bytes32 constant private _TOKENS_SENDER_INTERFACE_HASH =\n        0x29ddb589b1fb5fc7cf394961c1adf5f8c6454761adf795e67fe149f658abe895;\n\n    // keccak256(\"ERC777TokensRecipient\")\n    bytes32 constant private _TOKENS_RECIPIENT_INTERFACE_HASH =\n        0xb281fc8c12954d22544db45de3159a39272895b169a852b314f9cc762e44c53b;\n\n    // This isn't ever read from - it's only used to respond to the defaultOperators query.\n    address[] private _defaultOperatorsArray;\n\n    // Immutable, but accounts may revoke them (tracked in __revokedDefaultOperators).\n    mapping(address => bool) private _defaultOperators;\n\n    // For each account, a mapping of its operators and revoked default operators.\n    mapping(address => mapping(address => bool)) private _operators;\n    mapping(address => mapping(address => bool)) private _revokedDefaultOperators;\n\n    // ERC20-allowances\n    mapping (address => mapping (address => uint256)) private _allowances;\n\n    /**\n     * @dev `defaultOperators` may be an empty array.\n     */\n    constructor(\n        string memory name_,\n        string memory symbol_,\n        address[] memory defaultOperators_\n    )\n        public\n    {\n        _name = name_;\n        _symbol = symbol_;\n\n        _defaultOperatorsArray = defaultOperators_;\n        for (uint256 i = 0; i < _defaultOperatorsArray.length; i++) {\n            _defaultOperators[_defaultOperatorsArray[i]] = true;\n        }\n\n        // register interfaces\n        _ERC1820_REGISTRY.setInterfaceImplementer(address(this), keccak256(\"ERC777Token\"), address(this));\n        _ERC1820_REGISTRY.setInterfaceImplementer(address(this), keccak256(\"ERC20Token\"), address(this));\n    }\n\n    /**\n     * @dev See {IERC777-name}.\n     */\n    function name() public view virtual override returns (string memory) {\n        return _name;\n    }\n\n    /**\n     * @dev See {IERC777-symbol}.\n     */\n    function symbol() public view virtual override returns (string memory) {\n        return _symbol;\n    }\n\n    /**\n     * @dev See {ERC20-decimals}.\n     *\n     * Always returns 18, as per the\n     * [ERC777 EIP](https://eips.ethereum.org/EIPS/eip-777#backward-compatibility).\n     */\n    function decimals() public pure virtual returns (uint8) {\n        return 18;\n    }\n\n    /**\n     * @dev See {IERC777-granularity}.\n     *\n     * This implementation always returns `1`.\n     */\n    function granularity() public view virtual override returns (uint256) {\n        return 1;\n    }\n\n    /**\n     * @dev See {IERC777-totalSupply}.\n     */\n    function totalSupply() public view virtual override(IERC20, IERC777) returns (uint256) {\n        return _totalSupply;\n    }\n\n    /**\n     * @dev Returns the amount of tokens owned by an account (`tokenHolder`).\n     */\n    function balanceOf(address tokenHolder) public view virtual override(IERC20, IERC777) returns (uint256) {\n        return _balances[tokenHolder];\n    }\n\n    /**\n     * @dev See {IERC777-send}.\n     *\n     * Also emits a {IERC20-Transfer} event for ERC20 compatibility.\n     */\n    function send(address recipient, uint256 amount, bytes memory data) public virtual override  {\n        _send(_msgSender(), recipient, amount, data, \"\", true);\n    }\n\n    /**\n     * @dev See {IERC20-transfer}.\n     *\n     * Unlike `send`, `recipient` is _not_ required to implement the {IERC777Recipient}\n     * interface if it is a contract.\n     *\n     * Also emits a {Sent} event.\n     */\n    function transfer(address recipient, uint256 amount) public virtual override returns (bool) {\n        require(recipient != address(0), \"ERC777: transfer to the zero address\");\n\n        address from = _msgSender();\n\n        _callTokensToSend(from, from, recipient, amount, \"\", \"\");\n\n        _move(from, from, recipient, amount, \"\", \"\");\n\n        _callTokensReceived(from, from, recipient, amount, \"\", \"\", false);\n\n        return true;\n    }\n\n    /**\n     * @dev See {IERC777-burn}.\n     *\n     * Also emits a {IERC20-Transfer} event for ERC20 compatibility.\n     */\n    function burn(uint256 amount, bytes memory data) public virtual override  {\n        _burn(_msgSender(), amount, data, \"\");\n    }\n\n    /**\n     * @dev See {IERC777-isOperatorFor}.\n     */\n    function isOperatorFor(address operator, address tokenHolder) public view virtual override returns (bool) {\n        return operator == tokenHolder ||\n            (_defaultOperators[operator] && !_revokedDefaultOperators[tokenHolder][operator]) ||\n            _operators[tokenHolder][operator];\n    }\n\n    /**\n     * @dev See {IERC777-authorizeOperator}.\n     */\n    function authorizeOperator(address operator) public virtual override  {\n        require(_msgSender() != operator, \"ERC777: authorizing self as operator\");\n\n        if (_defaultOperators[operator]) {\n            delete _revokedDefaultOperators[_msgSender()][operator];\n        } else {\n            _operators[_msgSender()][operator] = true;\n        }\n\n        emit AuthorizedOperator(operator, _msgSender());\n    }\n\n    /**\n     * @dev See {IERC777-revokeOperator}.\n     */\n    function revokeOperator(address operator) public virtual override  {\n        require(operator != _msgSender(), \"ERC777: revoking self as operator\");\n\n        if (_defaultOperators[operator]) {\n            _revokedDefaultOperators[_msgSender()][operator] = true;\n        } else {\n            delete _operators[_msgSender()][operator];\n        }\n\n        emit RevokedOperator(operator, _msgSender());\n    }\n\n    /**\n     * @dev See {IERC777-defaultOperators}.\n     */\n    function defaultOperators() public view virtual override returns (address[] memory) {\n        return _defaultOperatorsArray;\n    }\n\n    /**\n     * @dev See {IERC777-operatorSend}.\n     *\n     * Emits {Sent} and {IERC20-Transfer} events.\n     */\n    function operatorSend(\n        address sender,\n        address recipient,\n        uint256 amount,\n        bytes memory data,\n        bytes memory operatorData\n    )\n        public\n        virtual\n        override\n    {\n        require(isOperatorFor(_msgSender(), sender), \"ERC777: caller is not an operator for holder\");\n        _send(sender, recipient, amount, data, operatorData, true);\n    }\n\n    /**\n     * @dev See {IERC777-operatorBurn}.\n     *\n     * Emits {Burned} and {IERC20-Transfer} events.\n     */\n    function operatorBurn(address account, uint256 amount, bytes memory data, bytes memory operatorData) public virtual override {\n        require(isOperatorFor(_msgSender(), account), \"ERC777: caller is not an operator for holder\");\n        _burn(account, amount, data, operatorData);\n    }\n\n    /**\n     * @dev See {IERC20-allowance}.\n     *\n     * Note that operator and allowance concepts are orthogonal: operators may\n     * not have allowance, and accounts with allowance may not be operators\n     * themselves.\n     */\n    function allowance(address holder, address spender) public view virtual override returns (uint256) {\n        return _allowances[holder][spender];\n    }\n\n    /**\n     * @dev See {IERC20-approve}.\n     *\n     * Note that accounts cannot have allowance issued by their operators.\n     */\n    function approve(address spender, uint256 value) public virtual override returns (bool) {\n        address holder = _msgSender();\n        _approve(holder, spender, value);\n        return true;\n    }\n\n   /**\n    * @dev See {IERC20-transferFrom}.\n    *\n    * Note that operator and allowance concepts are orthogonal: operators cannot\n    * call `transferFrom` (unless they have allowance), and accounts with\n    * allowance cannot call `operatorSend` (unless they are operators).\n    *\n    * Emits {Sent}, {IERC20-Transfer} and {IERC20-Approval} events.\n    */\n    function transferFrom(address holder, address recipient, uint256 amount) public virtual override returns (bool) {\n        require(recipient != address(0), \"ERC777: transfer to the zero address\");\n        require(holder != address(0), \"ERC777: transfer from the zero address\");\n\n        address spender = _msgSender();\n\n        _callTokensToSend(spender, holder, recipient, amount, \"\", \"\");\n\n        _move(spender, holder, recipient, amount, \"\", \"\");\n        _approve(holder, spender, _allowances[holder][spender].sub(amount, \"ERC777: transfer amount exceeds allowance\"));\n\n        _callTokensReceived(spender, holder, recipient, amount, \"\", \"\", false);\n\n        return true;\n    }\n\n    /**\n     * @dev Creates `amount` tokens and assigns them to `account`, increasing\n     * the total supply.\n     *\n     * If a send hook is registered for `account`, the corresponding function\n     * will be called with `operator`, `data` and `operatorData`.\n     *\n     * See {IERC777Sender} and {IERC777Recipient}.\n     *\n     * Emits {Minted} and {IERC20-Transfer} events.\n     *\n     * Requirements\n     *\n     * - `account` cannot be the zero address.\n     * - if `account` is a contract, it must implement the {IERC777Recipient}\n     * interface.\n     */\n    function _mint(\n        address account,\n        uint256 amount,\n        bytes memory userData,\n        bytes memory operatorData\n    )\n        internal\n        virtual\n    {\n        require(account != address(0), \"ERC777: mint to the zero address\");\n\n        address operator = _msgSender();\n\n        _beforeTokenTransfer(operator, address(0), account, amount);\n\n        // Update state variables\n        _totalSupply = _totalSupply.add(amount);\n        _balances[account] = _balances[account].add(amount);\n\n        _callTokensReceived(operator, address(0), account, amount, userData, operatorData, true);\n\n        emit Minted(operator, account, amount, userData, operatorData);\n        emit Transfer(address(0), account, amount);\n    }\n\n    /**\n     * @dev Send tokens\n     * @param from address token holder address\n     * @param to address recipient address\n     * @param amount uint256 amount of tokens to transfer\n     * @param userData bytes extra information provided by the token holder (if any)\n     * @param operatorData bytes extra information provided by the operator (if any)\n     * @param requireReceptionAck if true, contract recipients are required to implement ERC777TokensRecipient\n     */\n    function _send(\n        address from,\n        address to,\n        uint256 amount,\n        bytes memory userData,\n        bytes memory operatorData,\n        bool requireReceptionAck\n    )\n        internal\n        virtual\n    {\n        require(from != address(0), \"ERC777: send from the zero address\");\n        require(to != address(0), \"ERC777: send to the zero address\");\n\n        address operator = _msgSender();\n\n        _callTokensToSend(operator, from, to, amount, userData, operatorData);\n\n        _move(operator, from, to, amount, userData, operatorData);\n\n        _callTokensReceived(operator, from, to, amount, userData, operatorData, requireReceptionAck);\n    }\n\n    /**\n     * @dev Burn tokens\n     * @param from address token holder address\n     * @param amount uint256 amount of tokens to burn\n     * @param data bytes extra information provided by the token holder\n     * @param operatorData bytes extra information provided by the operator (if any)\n     */\n    function _burn(\n        address from,\n        uint256 amount,\n        bytes memory data,\n        bytes memory operatorData\n    )\n        internal\n        virtual\n    {\n        require(from != address(0), \"ERC777: burn from the zero address\");\n\n        address operator = _msgSender();\n\n        _callTokensToSend(operator, from, address(0), amount, data, operatorData);\n\n        _beforeTokenTransfer(operator, from, address(0), amount);\n\n        // Update state variables\n        _balances[from] = _balances[from].sub(amount, \"ERC777: burn amount exceeds balance\");\n        _totalSupply = _totalSupply.sub(amount);\n\n        emit Burned(operator, from, amount, data, operatorData);\n        emit Transfer(from, address(0), amount);\n    }\n\n    function _move(\n        address operator,\n        address from,\n        address to,\n        uint256 amount,\n        bytes memory userData,\n        bytes memory operatorData\n    )\n        private\n    {\n        _beforeTokenTransfer(operator, from, to, amount);\n\n        _balances[from] = _balances[from].sub(amount, \"ERC777: transfer amount exceeds balance\");\n        _balances[to] = _balances[to].add(amount);\n\n        emit Sent(operator, from, to, amount, userData, operatorData);\n        emit Transfer(from, to, amount);\n    }\n\n    /**\n     * @dev See {ERC20-_approve}.\n     *\n     * Note that accounts cannot have allowance issued by their operators.\n     */\n    function _approve(address holder, address spender, uint256 value) internal {\n        require(holder != address(0), \"ERC777: approve from the zero address\");\n        require(spender != address(0), \"ERC777: approve to the zero address\");\n\n        _allowances[holder][spender] = value;\n        emit Approval(holder, spender, value);\n    }\n\n    /**\n     * @dev Call from.tokensToSend() if the interface is registered\n     * @param operator address operator requesting the transfer\n     * @param from address token holder address\n     * @param to address recipient address\n     * @param amount uint256 amount of tokens to transfer\n     * @param userData bytes extra information provided by the token holder (if any)\n     * @param operatorData bytes extra information provided by the operator (if any)\n     */\n    function _callTokensToSend(\n        address operator,\n        address from,\n        address to,\n        uint256 amount,\n        bytes memory userData,\n        bytes memory operatorData\n    )\n        private\n    {\n        address implementer = _ERC1820_REGISTRY.getInterfaceImplementer(from, _TOKENS_SENDER_INTERFACE_HASH);\n        if (implementer != address(0)) {\n            IERC777Sender(implementer).tokensToSend(operator, from, to, amount, userData, operatorData);\n        }\n    }\n\n    /**\n     * @dev Call to.tokensReceived() if the interface is registered. Reverts if the recipient is a contract but\n     * tokensReceived() was not registered for the recipient\n     * @param operator address operator requesting the transfer\n     * @param from address token holder address\n     * @param to address recipient address\n     * @param amount uint256 amount of tokens to transfer\n     * @param userData bytes extra information provided by the token holder (if any)\n     * @param operatorData bytes extra information provided by the operator (if any)\n     * @param requireReceptionAck if true, contract recipients are required to implement ERC777TokensRecipient\n     */\n    function _callTokensReceived(\n        address operator,\n        address from,\n        address to,\n        uint256 amount,\n        bytes memory userData,\n        bytes memory operatorData,\n        bool requireReceptionAck\n    )\n        private\n    {\n        address implementer = _ERC1820_REGISTRY.getInterfaceImplementer(to, _TOKENS_RECIPIENT_INTERFACE_HASH);\n        if (implementer != address(0)) {\n            IERC777Recipient(implementer).tokensReceived(operator, from, to, amount, userData, operatorData);\n        } else if (requireReceptionAck) {\n            require(!to.isContract(), \"ERC777: token recipient contract has no implementer for ERC777TokensRecipient\");\n        }\n    }\n\n    /**\n     * @dev Hook that is called before any token transfer. This includes\n     * calls to {send}, {transfer}, {operatorSend}, minting and burning.\n     *\n     * Calling conditions:\n     *\n     * - when `from` and `to` are both non-zero, `amount` of ``from``'s tokens\n     * will be to transferred to `to`.\n     * - when `from` is zero, `amount` tokens will be minted for `to`.\n     * - when `to` is zero, `amount` of ``from``'s tokens will be burned.\n     * - `from` and `to` are never both zero.\n     *\n     * To learn more about hooks, head to xref:ROOT:extending-contracts.adoc#using-hooks[Using Hooks].\n     */\n    function _beforeTokenTransfer(address operator, address from, address to, uint256 amount) internal virtual { }\n}\n",
  "sourcePath": "/home/ethereum/Desktop/NFT_DIR/contracts/token/ERC777/ERC777.sol",
  "compiler": {
    "name": "solc",
    "version": "0.6.12+commit.27d51765.Emscripten.clang"
  },
  "schemaVersion": "3.3.3",
  "updatedAt": "2021-03-23T14:41:06.509Z",
  "devdoc": {
    "details": "Implementation of the {IERC777} interface. This implementation is agnostic to the way tokens are created. This means that a supply mechanism has to be added in a derived contract using {_mint}. Support for ERC20 is included in this contract, as specified by the EIP: both the ERC777 and ERC20 interfaces can be safely used when interacting with it. Both {IERC777-Sent} and {IERC20-Transfer} events are emitted on token movements. Additionally, the {IERC777-granularity} value is hard-coded to `1`, meaning that there are no special restrictions in the amount of tokens that created, moved, or destroyed. This makes integration with ERC20 applications seamless.",
    "kind": "dev",
    "methods": {
      "allowance(address,address)": {
        "details": "See {IERC20-allowance}. Note that operator and allowance concepts are orthogonal: operators may not have allowance, and accounts with allowance may not be operators themselves."
      },
      "approve(address,uint256)": {
        "details": "See {IERC20-approve}. Note that accounts cannot have allowance issued by their operators."
      },
      "authorizeOperator(address)": {
        "details": "See {IERC777-authorizeOperator}."
      },
      "balanceOf(address)": {
        "details": "Returns the amount of tokens owned by an account (`tokenHolder`)."
      },
      "burn(uint256,bytes)": {
        "details": "See {IERC777-burn}. Also emits a {IERC20-Transfer} event for ERC20 compatibility."
      },
      "constructor": {
        "details": "`defaultOperators` may be an empty array."
      },
      "decimals()": {
        "details": "See {ERC20-decimals}. Always returns 18, as per the [ERC777 EIP](https://eips.ethereum.org/EIPS/eip-777#backward-compatibility)."
      },
      "defaultOperators()": {
        "details": "See {IERC777-defaultOperators}."
      },
      "granularity()": {
        "details": "See {IERC777-granularity}. This implementation always returns `1`."
      },
      "isOperatorFor(address,address)": {
        "details": "See {IERC777-isOperatorFor}."
      },
      "name()": {
        "details": "See {IERC777-name}."
      },
      "operatorBurn(address,uint256,bytes,bytes)": {
        "details": "See {IERC777-operatorBurn}. Emits {Burned} and {IERC20-Transfer} events."
      },
      "operatorSend(address,address,uint256,bytes,bytes)": {
        "details": "See {IERC777-operatorSend}. Emits {Sent} and {IERC20-Transfer} events."
      },
      "revokeOperator(address)": {
        "details": "See {IERC777-revokeOperator}."
      },
      "send(address,uint256,bytes)": {
        "details": "See {IERC777-send}. Also emits a {IERC20-Transfer} event for ERC20 compatibility."
      },
      "symbol()": {
        "details": "See {IERC777-symbol}."
      },
      "totalSupply()": {
        "details": "See {IERC777-totalSupply}."
      },
      "transfer(address,uint256)": {
        "details": "See {IERC20-transfer}. Unlike `send`, `recipient` is _not_ required to implement the {IERC777Recipient} interface if it is a contract. Also emits a {Sent} event."
      },
      "transferFrom(address,address,uint256)": {
        "details": "See {IERC20-transferFrom}. Note that operator and allowance concepts are orthogonal: operators cannot call `transferFrom` (unless they have allowance), and accounts with allowance cannot call `operatorSend` (unless they are operators). Emits {Sent}, {IERC20-Transfer} and {IERC20-Approval} events."
      }
    },
    "version": 1
  },
  "userdoc": {
    "kind": "user",
    "methods": {},
    "version": 1
  }
}